:020000040000fa
:080000000002040000000000f2
:020000040000fa
:1000080048060000480600004806000048060000b0
:1000180048060000480600004806000048060000a0
:10002800480600004806000048060000f6030000e5
:100038004806000048060000480600009a02000032
:1000480048060000480600004806000018050000a1
:1000580082050000dc050000480600004806000094
:100068004806000048060000480600004806000050
:100078004806000048060000480600004806000040
:100088004806000048060000480600004806000030
:10009800480600004806000068040000c804000084
:1000a8004806000048060000480600004806000010
:1000b8004806000048060000480600004806000000
:1000c80048060000480600004806000048060000f0
:1000d80048060000480600004806000048060000e0
:1000e80048060000480600004806000048060000d0
:1000f80048060000480600004806000048060000c0
:1001080048060000480600004806000048060000af
:10011800480600004806000048060000480600009f
:10012800480600004806000048060000480600008f
:10013800480600004806000048060000480600007f
:10014800480600004806000048060000480600006f
:10015800480600004806000048060000480600005f
:10016800480600004806000048060000480600004f
:10017800480600004806000048060000480600003f
:10018800480600004806000048060000480600002f
:10019800480600004806000048060000480600001f
:1001a800480600004806000048060000480600000f
:1001b80048060000480600004806000048060000ff
:1001c80048060000480600004806000048060000ef
:1001d80048060000480600004806000048060000df
:1001e80048060000480600004806000048060000cf
:0801f800480600004806000063
:020000040000fa
:1002080048060000480600004806000048060000ae
:10021800480600004806000048060000480600009e
:10022800480600004806000048060000f6030000e3
:100238004806000048060000480600009a02000030
:10024800480600004806000048060000180500009f
:1002580082050000dc050000480600004806000092
:10026800480600004806000048060000480600004e
:10027800480600004806000048060000480600003e
:10028800480600004806000048060000480600002e
:10029800480600004806000068040000c804000082
:1002a800480600004806000048060000480600000e
:1002b80048060000480600004806000048060000fe
:1002c80048060000480600004806000048060000ee
:1002d80048060000480600004806000048060000de
:1002e80048060000480600004806000048060000ce
:1002f80048060000480600004806000048060000be
:1003080048060000480600004806000048060000ad
:10031800480600004806000048060000480600009d
:10032800480600004806000048060000480600008d
:10033800480600004806000048060000480600007d
:10034800480600004806000048060000480600006d
:10035800480600004806000048060000480600005d
:10036800480600004806000048060000480600004d
:10037800480600004806000048060000480600003d
:10038800480600004806000048060000480600002d
:10039800480600004806000048060000480600001d
:1003a800480600004806000048060000480600000d
:1003b80048060000480600004806000048060000fd
:1003c80048060000480600004806000048060000ed
:1003d80048060000480600004806000048060000dd
:1003e80048060000480600004806000048060000cd
:0803f800480600004806000061
:020000040000fa
:100400008f9120000edf20000e0188000000000008
:10041000000020000000e000020032000001200087
:10042000200288000c00070020fa210001002000b3
:1004300011000700000020000000e0000200320070
:1004400000000200000000008e1602000000000004
:100450000040da000000fe004440a900c006200071
:100460000000e0000300320000002000a00188002e
:100470004440a80000000600910188008000780038
:100480000000eb0015003700e280400032a0b4000d
:100490009101ba00e280400032a0b4009102ba009b
:1004a000e280400032a0b4000002eb00472bde00e7
:1004b000f507b200602ce10004003a000059eb009f
:1004c0008301e900fdff3e00040037006128e100e0
:1004d000010032000082eb00040007001101ba00a5
:1004e0000200e000e8ff3a00000006003159ba00bf
:1004f0008301e9000c0032002159ba008301e900b0
:10050000080032000400e00003003a00e2804000ee
:1005100032a0b400f5ff370011d9ba008301e90019
:10052000faff3a008100e800e180400032a0b40008
:1005300000000600849fbe00861f78000000fa00bd
:10054000a483200014427800e34f520001003e00d3
:100550002043a80084842000144278000442e8006c
:100560000443780085842000864a78008484200033
:1005700014427800e14f52008d0036000042eb003b
:100580000443780085842000864a78009484200003
:10059000144278000442e800044378009584200067
:1005a000864a78009484200014427800e44f520078
:1005b000520036000042eb0004437800958420008e
:1005c000864a780035438000c4438000848f5200ff
:1005d00003003100344380000402e8003443880003
:1005e0000042eb000443780065912000864a7800c1
:1005f0003e00370064912000144278000482fb0022
:100600008402420084862000048242009402780022
:1006100064912000144278000482fb00040342002d
:10062000a48720000402430014027800848f520043
:100630000c00310064912000144278000482fb0019
:10064000040342008586200085024300950278005d
:100650008502e8000403420084862000040243006f
:10066000050a780064912000144278000482fb009f
:100670008402420004872000048242009402780031
:1006800064912000144278000482fb0004034200bd
:10069000248820000402430014027800848f520052
:1006a0000c00310064912000144278000482fb00a9
:1006b000040342000587200085024300950278006c
:1006c0008502e8000403420004872000040243007e
:1006d000050a780064912000144278000442e80082
:1006e0000443780065912000864a780064912000d8
:1006f00014427800e34f5200beff3600e48420002d
:1007000014427800e04f5200140032000042eb0027
:1007100004437800e5842000864a7800b4842000f1
:1007200014427800e54f520001003a00cb22a900a4
:10073000a484200014427800e54f520001003a00e2
:10074000cb02a900e488200014427800e04f520058
:1007500017003200c222a90015003700e4842000ef
:10076000144278000442e80004437800e584200045
:10077000864a7800b484200014427800e54f520085
:1007800001003a00cb22a800a48420001442780083
:10079000e54f520001003a00cb02a800e488200097
:1007a00014427800e04f520001003200c222a8003b
:1007b0006490200014427800f34f520006003e007f
:1007c00064902000144278000442e800044378005a
:1007d00065902000864a780084e0a9000080fa0035
:1007e0004f0378004f02be0000400600849fbe0009
:1007f000861f78000000fa00b483200014427800bd
:10080000e34f520006003e00b483200014427800fb
:100810000442e80004437800b5832000864a78004b
:10082000c483200014427800e14f520006003e00cd
:10083000c4832000144278000442e8000443780096
:10084000c5832000864a7800d483200014427800b3
:10085000e14f520006003e00d4832000144278008d
:100860000442e80004437800d5832000864a7800db
:10087000e483200014427800e14f520006003e005d
:10088000e4832000144278000442e8000443780026
:10089000e5832000864a7800344280000402e800a4
:1008a00034428800e4852000144278000442e800c5
:1008b00004437800e5852000864a78008460a9001a
:1008c0000080fa004f0378004f02be00004006008f
:1008d000849fbe00861f78000000fa0094118000fb
:1008e00061026200e00f52001a003200048420000e
:1008f00014427800ed4f5200040036000042eb0035
:100900000443780005842000864a7800048420008f
:10091000144278000483fb00b41180008442780004
:10092000c481200004024300054a780004842000aa
:10093000144278000442e800044378000584200053
:10094000864a78000042eb0004437800c58320000b
:10095000864a78009411800062026200e00f520023
:1009600006003200010037003222a90094118000f5
:1009700062026200e00f5200fbff3a0087c0a9004c
:100980000080fa004f0378004f02be0000400600ce
:10099000849fbe00861f78000000fa002484200097
:1009a00014427800ec4f52000e003e0024842000d8
:1009b000144278000442e8000443780025842000b3
:1009c000864a7800c54180002484200014427800c3
:1009d0000482fb0065427a000482fb00a4118800b7
:1009e000040037000042eb0004437800e583200058
:1009f000864a78009411800062026200e00f520083
:100a000006003200010037003222a9009411800054
:100a100062026200e00f5200fbff3a0087e0a9008b
:100a20000080fa004f0378004f02be00004006002d
:100a3000849fbe00861f78000000fa0014c0b30037
:100a400004437800b5842000864a7800cb22a800b1
:100a50001411800061026200e00f52001a0032009f
:100a6000f483200014427800ec4f5200040036005a
:100a70000042eb0004437800f5832000864a7800aa
:100a8000f4832000144278000483fb0034118000ba
:100a9000844278000480200004024300054a780064
:100aa000f4832000144278000442e80004437800f4
:100ab000f5832000864a78000042eb00044378006a
:100ac000b5832000864a780014118000620262001b
:100ad000e00f520006003200010037002222a90078
:100ae0001411800062026200e00f5200fbff3a0026
:100af0008560a9000080fa004f0378004f02be0015
:100b000000400600849fbe00861f78000000fa00a7
:100b100014842000144278008482fb00549020004a
:100b2000144278000482fb000402e900848f520022
:100b30000e003d0014842000144278000442e800b6
:100b40000443780015842000864a7800d540800050
:100b500014842000144278000482fb0065427a006d
:100b60000482fb0024118800040037000042eb00df
:100b700004437800d5832000864a78001411800051
:100b800062026200e00f52000600320001003700ee
:100b90002222a9001411800062026200e00f5200bc
:100ba000fbff3a008580a9000080fa004f0378001f
:100bb0004f02be0000400600849fbe00869fbe001c
:100bc0000000fa002043a900a4832000144278000a
:100bd0000442e80004437800a5832000864a780098
:100be00044c0b30004437800d5842000864a7800ce
:100bf0001e003700d4842000144278000482fb00d9
:100c000064025200d5842000954278008582fb0062
:100c1000e4825200058342000585200085024300de
:100c200015037800d7428000d584200095427800d3
:100c30008582fb0085824200858243009502780010
:100c4000850243000403420004852000040243009f
:100c5000050a7800d4842000144278000442e80099
:100c600004437800d5842000864a7800d48420008c
:100c700014427800e84f5200deff360085a0a9003c
:100c80000080fa004f03be004f02be000040060085
:080c90000040da000000fe0044
:020000040000fa
:100c98000101000001010000000000000000000048
:100ca800000f000002020000020200000000000025
:100cb80000000000000f0000030300000303000011
:100cc8000000000000000000000f00000404000005
:100cd800040400000000000000000000000f0000f5
:100ce80005050000050500000000000000000000e8
:100cf800000f0000060600000606000000000000c5
:100d080000000000000f00000707000007070000b0
:100d18000000000000000000000f000008080000ac
:100d2800080800000000000000000000000f00009c
:100d38000909000009090000000000000000000087
:100d4800000f00000a0a00000a0a00000000000064
:100d580000000000000f00000a0000000000000072
:080d68000a0000000000000079
:020000040000fa
:100d70000200fa000042eb00044f78001d0037002b
:100d80000042eb0014479800160037001e4278001e
:100d90000480fb001e4290008483fb009e4278008a
:100da0000582fb009e4290000583fb006a22b90089
:100db0000402780006024200c564280065437a00f8
:100dc0006a02b9000402780087024200048a200007
:100dd00004824200064a78001e4290000442e80065
:100de000144798001e429000e94f5200e7ff36007a
:100df0001e4fe8001e427800e94f5200e0ff360027
:100e0000400007000042eb00044f78001700370055
:100e10001e4378000682fb001e4378008682fb009a
:100e2000066b2800e6c27a008582fb0004034200bc
:100e3000a487200004024300050a78009e4278003f
:100e40000582fb001e4378008682fb00466b28006b
:100e5000e6c27a008582fb00040342002488200059
:100e600004024300050a78001e4fe8001e42780085
:100e7000e34f5200e6ff3600a4002000c443880080
:100e800084c0b3000443780065892000864a780056
:100e90003d0a0700cd090700f40907000080fa00a9
:100ea000000006000200fa000042eb00044f780048
:100eb0000f003700068a20009e4278000582fb0062
:100ec0006a22b90004027800040343009e427800bd
:100ed0000582fb006a22b90004027800a2c0b300b8
:100ee0008600780004007800f20a07001e4fe80030
:100ef0001e427800e94f5200eeff36000080fa00f3
:100f0000000006000200fa000042eb00044f7800e7
:100f10000f003700068a20009e4278000582fb0001
:100f20006a22b90004027800040343009e4278005c
:100f30000582fb006a22b90004027800a2c0b30057
:100f40008600780004007800aa0a07001e4fe80017
:100f50001e427800e94f5200eeff36000080fa0092
:100f6000000006000000fa00e585200095427800a8
:100f700034c6b30084cf5200750036000042eb0047
:100f800004437800e5852000864a7800f485200037
:100f900014427800e04f52000b003200048620001b
:100fa00014427800e24f520012003e0004862000f6
:100fb000144278000442e8000443780005862000cb
:100fc000864a78000b0037000042eb0004437800ab
:100fd00005862000864a78003589200095427800f1
:100fe000f4cdb30004c262000443780035892000c8
:100ff000864a78000486200014427800e34f5200ad
:101000000d003a0004862000144278000442e800f3
:101010000443780005862000864a78003589200040
:101020009542780004c2b30004c272000443780001
:1010300035892000864a780004c1b3000443780053
:10104000a5822000864a7800448620001442780059
:10105000e04f52000a00320044862000144278001b
:1010600004437800b5822000864a78000042eb00f5
:101070000443780045862000864a78000400370043
:1010800014c0b30004437800b5822000864a78007b
:10109000549120001442780004437800c582200057
:1010a000864a7800e48820001442780004437800df
:1010b00005832000864a78001489200014427800b5
:1010c0000443780015832000864a7800d4882000e5
:1010d000144278000443780045832000864a780053
:1010e000f488200014427800e04f520006003a00d5
:1010f000c4882000144278000443780055832000ff
:10110000864a78000a0037000489200014427800db
:101110000443780055832000864a7800a488200084
:10112000144278000443780035832000864a780012
:10113000f48820001442780004437800658320007e
:10114000864a7800a4822000c44188007004070009
:101150000080fa00000006000400fa002047980012
:101160002e4290000482fb006a22b900040278003b
:10117000e9024200048a20000482420014427800fe
:10118000044078009204070000427800e04f5200cb
:101190000d003a00d6882000164378002e429000b9
:1011a0000482fb006a22b90004027800e9024200ce
:1011b000048a200004824200144278000442630042
:1011c000e04f52007d0032000042eb000443780003
:1011d000e5882000864a78007b000700d68820003a
:1011e000164378002e4290000482fb006a22b90068
:1011f00004027800e9024200048a200004824200ce
:101200001442780004426300e04f5200170032009d
:10121000d488200014427800044378002e429000c5
:101220000482fb006a22b90004027800e90242004d
:10123000048a2000048242001442780004c2ea00ba
:101240000442630004437800d5882000864a780071
:10125000d4882000144278000474a100044378006c
:10126000d5882000864a78001d003700354380006d
:10127000c4438000848f520004003e00c4438000b9
:101280000402e800344388004d003700d68820006f
:10129000164378002e4290000482fb006a22b900b7
:1012a00004027800e9024200048a2000048242001d
:1012b000144278000442730004437800d58820006b
:1012c000864a7800d58820009542780004c8b3008b
:1012d00004c2720004437800d5882000864a780052
:1012e000c44380000402e800344388002e4290008a
:1012f0000482fb006a22b90004027800e90242007d
:10130000048a2000048242001442780004437800da
:10131000b5882000864a78002e4290000442e800fa
:1013200004437800a5882000864a78005f090700fa
:101330000042eb00044f78001c003700d4882000e6
:10134000144278008482fb001e4378000682fb0072
:1013500004aade006102620004427800e04f5200fd
:101360000b0032009e4278000582fb00840242009e
:1013700004872000048242008002eb00050a780006
:1013800054c0b30084427800a6842000054b780046
:101390001e4378008682fb00749020000482420085
:1013a0008042eb00054a78001e4fe8001e4278009c
:1013b000e34f5200e1ff360001003700000000005b
:1013c0000080fa00000006000200fa000042eb0074
:1013d000044f78002e0037009e4278000582fb0003
:1013e0001e4378008682fb0005834200a58720000b
:1013f00085024300950278008502e800040342005c
:101400008486200004024300050a78009e4278008a
:101410000582fb001e4378008682fb0005834200a4
:101420002588200085024300950278008502e800a7
:10143000040342000487200004024300050a7800e8
:101440001e4278008482fb007489200004824200de
:1014500014427800e14f520006003a001e43780023
:101460008682fb00b4902000048242008042eb00a0
:10147000054a78001e4278008482fb0074902000a8
:10148000048242008042eb00054a78001e4fe800cb
:101490001e427800e34f5200cfff36000080fa0072
:1014a000000006000400fa0054c0b30004437800b2
:1014b00045862000864a7800f4882000144278008f
:1014c000e04f520036003a00648220001442780057
:1014d000e04f52001b023d000042eb00044f780039
:1014e0002b0037000042eb00244798000042eb003d
:1014f00014479800180037009e4278000582fb00d0
:101500009e4290000583fb006a22b9000402780025
:1015100086024200048a200004824200944278003d
:101520001e4290000482fb000483e800c481200076
:10153000040243001442780084cf520003003a00b2
:101540002e4290000442e800244798001e4290007a
:101550000442e800144798001e429000e74f5200f2
:10156000e5ff36002e429000e84f520007003a0097
:1015700044c0b3008442780046862000054b7800c2
:101580001e407800f4fe0700ee0137001e4fe80011
:101590001e427800e74f5200d2ff3600e9013700c3
:1015a00064822000144278008482fb00040420003e
:1015b00004826200e00f5200210032000489200002
:1015c00014427800e34f520009003a00f4882000ea
:1015d00014427800e24f520005003a0014c0b300f4
:1015e0008442780006892000054b78000f00370000
:1015f0000489200014427800e04f520007003200b6
:1016000004892000144278000442e90084427800f2
:1016100006892000054b78000400370014c0b30091
:1016200084427800f6882000054b780044c0b3005f
:101630008442780046862000054b7800c1013700bf
:101640006482200014427800e04f5200bd013d004a
:10165000f488200014427800e14f52003f003a0025
:1016600084c0b300044f7800380037000042eb001c
:10167000244798000042eb001447980018003700f8
:101680001e4378000682fb009e4290000583fb000b
:101690006a22b9000402780086024200048a20000f
:1016a00004824200944278001e4290000482fb00b3
:1016b0000483e800c481200004024300144278003f
:1016c00084cf520003003a002e4290000442e8000a
:1016d000244798001e4290000442e80014479800f6
:1016e0001e429000e74f5200e5ff36002e42900068
:1016f000e84f520014003a0044c0b300044378009d
:1017000045862000864a78000042eb0004437800ba
:1017100005892000864a78001e427800e84f520072
:1017200005003a0024c0b30004437800f588200087
:10173000864a78000400370034c0b30004437800c0
:10174000f5882000864a78001e4fe8001e42780087
:10175000e94f5200c5ff36007a013700f4882000b7
:1017600014427800e34f5200d2003a00048920006e
:1017700014427800e04f52001f003a00048220001b
:1017800014427800e04f52005f013a00f5812000da
:1017900095427800e481200014427800854078006a
:1017a00004407800a001070000427800044f780050
:1017b0001e427800ea4f5200620136001e42780055
:1017c000ee4f52005f013e0014c0b30004437800a6
:1017d00005892000864a78009e427800a48820006f
:1017e000054a780044c0b300844278004686200051
:1017f000054b78005301370004892000144278001b
:10180000e14f52006d003a000042eb008442780044
:1018100006892000054b78000482200014427800dd
:10182000e04f52003a013a00f581200095427800dd
:10183000e48120001442780085407800044078005c
:101840007901070000427800044f780034c6b300e5
:101850009e42780084cf52002f013e00a4882000d1
:1018600014427800eb4f520009003a00a48820008f
:1018700014427800eb4f520003003a001e437800f8
:101880000682fb00c4438800500707003e00370073
:10189000a488200014427800ec4f5200040032006b
:1018a000a488200014427800ed4f520020003a0036
:1018b0000042eb000443780005892000864a780046
:1018c000f581200095427800e481200014427800e0
:1018d00085407800044078005301070000427800fa
:1018e000044f78001e427800e04f5200260032007c
:1018f0001e427800e44f520022003e001e42e900e2
:1019000004437800b5882000864a780024c0b300dc
:101910000443780005892000864a780044c0b3005b
:101920000443780045862000864a78000501370088
:10193000a488200014427800ee4f520012003a00b2
:101940001e427800e04f5200f50032001e4278003f
:10195000e44f5200f4003e001e4fe9009e42780022
:101960000582fb0015002000042add0004427800f7
:101970008442780066892000054b780082070700c2
:10198000010037000000000024c0b300844278004a
:1019900006892000054b780044c0b30084427800db
:1019a00046862000054b78000042eb008442780018
:1019b00066902000054b7800e20037000489200083
:1019c00014427800e24f5200de003a000042eb0081
:1019d0008442780006892000054b7800f5812000bc
:1019e00095427800e4812000144278008540780018
:1019f000044078000c01070000427800044f780092
:101a000034c6b3009e42780084cf5200c8003e0026
:101a1000a488200014427800ec4f52000a003a00db
:101a2000b4882000144278000482fb001e43780032
:101a30008682fb0004034200a487200004024300c6
:101a4000050a78000d003700a488200014427800b1
:101a5000ed4f5200b8003a00b488200014427800dc
:101a60000482fb001e4378008682fb0004034200d0
:101a70002488200004024300050a7800d3060700ea
:101a800044c0b3000443780045862000864a7800ad
:101a90000042eb000443780065902000864a7800fd
:101aa00034c0b3000443780005892000864a7800da
:101ab000a4003700f488200014427800e24f52005e
:101ac000a0003a000489200014427800e04f520040
:101ad00020003a000482200014427800e04f5200b7
:101ae00097003a00f581200095427800e4812000bb
:101af000144278008540780004407800ca0007004e
:101b000000427800044f78001e427800e04f5200f7
:101b10008c0032001e427800ea4f520089003e00dd
:101b200014c0b3000443780005892000864a780079
:101b30001e42e90004437800a5882000864a780008
:101b400044c0b3000443780045862000864a7800ec
:101b50007c0037000489200014427800e14f5200d5
:101b600025003a001482200014427800e04f520011
:101b7000740032000042eb00044f7800120037007e
:101b8000a4882000144278000482fb009e42780062
:101b90008583fb001e4378008682fb000583e800f6
:101ba000c581200085024300154378006a22b900f0
:101bb0000402780087024200048a20000482420066
:101bc000064a78001e4fe8001e427800e74f520098
:101bd000ebff360044c0b300044378004586200084
:101be000864a780024c0b3000443780005892000a9
:101bf000864a780053003700048920001442780098
:101c0000e24f52004f003a000042eb002447980098
:101c10000042eb00044f780017003700a488200032
:101c2000144278000482fb009e4278000583fb008a
:101c30006a22b9000402780086024200048a200069
:101c400004824200944278001e4378000682fb0022
:101c50000483e800c4812000040243001442780099
:101c600084cf520003003a002e4290000442e80064
:101c7000244798001e4fe8001e427800e74f5200ac
:101c8000e6ff36002e429000e84f52001c003a005a
:101c9000068a2000a4882000144278000482fb00f9
:101ca0006a22b9000402780004034300a4882000db
:101cb000144278000482fb006a22b9000402780012
:101cc000a2c0b3008600780004007800490707002e
:101cd00044c0b3000443780045862000864a78005b
:101ce0000042eb000443780065902000864a7800ab
:101cf00034c0b3000443780005892000864a780088
:101d000068fc07000f003700000000000d003700de
:101d1000000000000b003700000000000900370041
:101d20000000000007003700000000000500370039
:101d30000000000003003700000000000100370031
:101d4000000000000080fa00000006000000fa0019
:101d5000141680004522de00614262008482fb008e
:101d6000c4842000144278000482fb00848f520057
:101d70002b003200459020009542780044c6b30005
:101d800084cf520020003a000042eb000443780068
:101d900045902000864a7800141680004522de0017
:101da0006142620004437800c5842000864a7800be
:101db000c484200014427800e04f52000a00320030
:101dc000d58820009542780004c2b30004c2720096
:101dd00004437800d5882000864a78000002eb0092
:101de000344388000e003700d588200095427800e3
:101df000f4cdb30004c2620004437800d58820000b
:101e0000864a78000600370044902000144278008b
:101e10000442e8000443780045902000864a780098
:101e20000080fa00000006000400fa002047980035
:101e3000314798003e429000e04f520003003200cc
:101e40002e429000e04f520002003a0000c2eb0028
:101e5000110037002e429000e94f52000200360078
:101e60000042eb00244798003e429000e94f5200a8
:101e7000020036000042eb00344798002e429000ea
:101e80006a22b90004027800044f78003e429000b4
:101e90001e4f42001e427800044078000080fa0085
:101ea000000006000000fa00f43c2e0064198800cf
:101eb000c40a200004168800f4ce270044168800c7
:101ec000040e200004198800c4432000141988005f
:101ed00004f02000241988000082eb008419880097
:101ee00085a0a900540580000440a1000450a00072
:101ef0000460a0005405880095a0a8002405800077
:101f000004c0a00004d0a10004e0a00024058800c3
:101f100004f4210014088800040028002408880024
:101f20009460a8003405800004c0a00004d0a00084
:101f300004e0a00034058800440d230064088800f4
:101f4000040228008408880094e0a80021e3a80087
:101f50002043a8000080fa00000006000000fa00fc
:101f60000042eb0004437800f5882000864a7800a0
:101f700034c0b30004437800d5832000864a78003b
:101f800034c0b30004437800e5832000864a78001b
:101f900054c0b30004437800b5832000864a78001b
:101fa00034c0b30004437800c5832000864a78001b
:101fb00014c0b30004437800b5842000864a78003a
:101fc00014c0b30004437800a5842000864a78003a
:101fd00004302000d4428800d4c0b3000443780009
:101fe00015842000864a7800e4c0b30004437800da
:101ff00025842000864a78000042eb0004437800e4
:10200000f5832000864a78000042eb000443780004
:1020100005842000864a78000042eb0004437800e3
:1020200005862000864a78000042eb0004437800d1
:1020300045862000864a78000042eb000443780081
:1020400045902000864a780054c1b30004437800cc
:1020500065902000864a78000080fa0000000600a3
:102060000200fa00000f78000002eb003442880002
:1020700000000000344280009e0f5200fdff390036
:102080000080fa00000006000000fa00c802a90063
:1020900000000000c822a8000002eb0084118800a4
:1020a0000002eb00941188003062a80004012000b7
:1020b000c4118800940580000480a0000490a10051
:1020c00004a0a100940588009405800004c0a1002c
:1020d00004d0a00004e0a1009405880094118000c1
:1020e0000460a1000470a1009411880097c0a800aa
:1020f00097e0a80033a2a90033e2a90031e2a800ca
:102100003342a800000000000000000000000000b2
:10211000000000000000000087e0a9000080fa0035
:10212000000006000000fa00c8e2a900000000005c
:10213000c842a8000002eb00041188000002eb0076
:10214000141188002062a800f40c200044118800bb
:102150004405800004c0a10004d0a10004e0a00058
:1021600044058800540580000400a0000410a0006d
:102170000420a10054058800141180000460a1000f
:102180000470a100141188009560a8009580a80033
:1021900023a2a90023e2a90021e2a8002342a8006b
:1021a000000000000000000000000000000000002f
:1021b000000000008580a9000080fa0000000600f1
:1021c0000800fa0020079800614798000042eb00e1
:1021d000344798000042eb00044f78002900370094
:1021e0002e02900094427800254798000042eb00b0
:1021f000144798001c003700ae4290003e42900009
:1022000004c26a000482fb0061026200044278009a
:10221000e04f5200090032003e42900084c1b200fb
:102220000482fb000402d1008442780004c8b30099
:1022300004c2720034479800040037003e42900008
:102240000482fb000402d100344798002e42900023
:102250000482fb000402d100244798001e42900033
:102260000442e800144798001e429000e74f5200d5
:10227000e1ff36002e0290000402e80024079800d7
:102280001e4fe8006e4290009e42780084cf5200bc
:10229000d3ff39003e429000044078000080fa00ed
:1022a000000006000000fa00881f7800d840800077
:1022b00054902000144278008442e900d440800009
:1022c0008540780004007800bdff070000427800d8
:1022d000444c9800ca82a8000042eb0004437800f6
:1022e00015842000864a7800d540800014842000a0
:1022f000144278000482fb0065427a000482fb00ed
:10230000241188004f0478000080fa0000000600c5
:102310000000fa00881f7800c8418000c441800096
:10232000d1c0b30004007800a5ff07000042780088
:10233000544c9800c282a8000042eb00044378008d
:1023400025842000864a7800c5418000248420002e
:10235000144278000482fb0065427a000482fb008c
:10236000a41188004f0478000080fa0000000600e5
:102370000200fa00000f7800c40d20009e027800d1
:10238000848f520002003e0084c0b3000d0037006d
:10239000a41220009e027800848f520002003e00aa
:1023a0000042eb0007003700f41820009e0278007e
:1023b000848f520002003e0014c0b30001003700b9
:1023c00044c0b300044078000080fa00000006001a
:1023d0000400fa00204798000042eb00044f780008
:1023e0002b0037002e4290008482fb001e437800b1
:1023f0000682fb0004aade0061026200044278004b
:10240000e04f5200210032001e4278008482fb001f
:10241000b49020000482420014427800e44f52003d
:10242000070032001e4378008682fb00b490200033
:102430000482420014427800e84f520002003a0041
:102440000042eb001d0037001e4278008482fb0032
:10245000b49020000482420014427800e14f520000
:102460000a003a009e4278000582fb008402420086
:10247000248820000482420014027800e00f5200f9
:1024800002003a000042eb000c0037001e4fe8004b
:102490001e427800e34f5200d2ff36002e429000d9
:1024a0000482fb006f026200e00f520002003a005b
:1024b0000042eb000100370014c0b3000440780074
:1024c0000080fa00000006000200fa00004f7800c9
:1024d0009e4278000582fb008402420004872000af
:1024e00004824200940278001e4378000682fb00ba
:1024f00004034200248820000402430014027800f0
:10250000848f52000e0039009e4278000582fb0045
:1025100084024200848620000482420094027800f3
:102520001e4378000682fb0004034200a4872000bb
:102530000402430014027800848f52000b00310023
:102540009e4278000582fb0015002000042add0071
:1025500084427800549120001442780004c2720032
:102560008442780056912000054b78000080fa00e4
:10257000000006000200fa000042eb00044378006d
:1025800055912000864a78000042eb00044f780005
:10259000530137007491200014427800e04f52003c
:1025a00044013a001e407800c7ff07001e42780031
:1025b0008482fb00748920000482420094427800e7
:1025c0001e4278000483fb000491200004024300b3
:1025d0001442780084cf5200360132009e427800c7
:1025e0000582fb0015002000042add001447980036
:1025f0001e4378000682fb006a22b90004027800bc
:10260000e9024200048a20000482420094427800d9
:102610001e42900004c26200e04f520013013200db
:1026200065892000954278001e42900004c2620035
:10263000e04f5200d2003a009e4278000582fb0033
:102640006a22b90004027800e8024200048a2000ed
:1026500004824200944278001e42900004c262004c
:10266000e04f5200570032001e4378008682fb0084
:10267000049120000482420014427800e84f520086
:102680000b003a0035438000c4438000848f520021
:10269000fd0036001e4278008482fb00b4902000ca
:1026a000048242008042eb00054a780001013700b5
:1026b0001e4378008682fb000491200004824200c1
:1026c00014427800e44f5200f1003a001e427800b4
:1026d0008482fb00b4902000048242008042eb0020
:1026e000054a780055912000954278001e429000de
:1026f00004c26200e04f5200e7003a001e43780037
:102700008682fb007490200004824200144278000c
:10271000e04f520014003a00d5882000954278001e
:102720001e42900004c26200e04f52000e003200d0
:102730001e4278008482fb007490200004824200d4
:1027400015c0b300054a78009e4278000582fb0060
:102750008402420084862000048242008002eb0052
:10276000050a7800d30037001e4378008682fb00fc
:10277000749020000482420014427800e24f52001c
:10278000c7003a001e4278008482fb00b49020000b
:102790000482420015c0b300054a7800e588200095
:1027a000954278001e42900004c2720004437800f3
:1027b000e5882000864a78000002eb003443880058
:1027c000bc0037001e4278008482fb000491200088
:1027d0000482420014427800e14f52003e003a0069
:1027e0001e4378008682fb00b490200004824200e1
:1027f0008042eb00054a7800559120009542780010
:102800001e42900004c26200e04f5200a6003a004f
:102810001e4278008482fb007490200004824200f3
:1028200014427800e04f520014003a00d58820008e
:10283000954278001e42900004c26200e04f5200b0
:102840000e0032001e4378008682fb007490200048
:102850000482420015c0b300054a78009e42780009
:102860000582fb008402420084862000048242002c
:102870008002eb00050a78008e0037001e437800c6
:102880008682fb007490200004824200144278008b
:10289000e24f520086003a001e4278008482fb001c
:1028a000b49020000482420015c0b300054a7800ad
:1028b000e5882000954278001e42900004c2720014
:1028c00004437800e5882000864a78000002eb0087
:1028d00034438800770037001e4278008482fb0072
:1028e000049120000482420014427800e04f52001c
:1028f0000f003a0035438000c4438000848f5200ab
:102900006c0036009e4278000583fb001e42780072
:102910008482fb00049120000482420094427800eb
:10292000b490200004024300054a7800610037009b
:102930009e4278000583fb001e4278008482fb00e3
:10294000049120000482420094427800b490200058
:1029500004024300054a7800e5882000954278008b
:102960001e42900004c2720004437800e5882000f3
:10297000864a78000002eb00344388004d0037009f
:1029800091fa07001e4278008482fb000491200027
:102990000482420014427800e84f52000e003a00d0
:1029a000d4882000144278000482fb006f02620089
:1029b000e00f520008003a001e4378008682fb00b8
:1029c000b4902000048242008042eb00054a780067
:1029d00058000700140037001e4278008482fb0074
:1029e000049120000482420014427800e44f520017
:1029f0000d003a00d4882000144278000482fb00c5
:102a00006f026200e00f5200070032001e437800a0
:102a10008682fb00b4902000048242008042eb00da
:102a2000054a7800330007000042eb0004437800b9
:102a3000e5882000864a7800c44380000402e8004c
:102a400034438800f4c0b30004437800b588200004
:102a5000864a780004ceb30004437800a58820009d
:102a6000864a780091030700120037001e42780062
:102a70008482fb00b4902000048242008042eb007c
:102a8000054a78000b0037000000000009003700fd
:102a900000000000070037000000000005003700bc
:102aa00000000000030037000000000001003700b4
:102ab000000000009e4278000583fb001e42780063
:102ac0008482fb000491200004824200944278003a
:102ad0007489200004024300054a78001e4fe80074
:102ae0001e427800e34f5200aafe36000080fa0032
:102af000000006000000fa00d5882000954278000a
:102b000004cfb30004c2620004437800d5882000db
:102b1000864a7800d4882000144278000474a1000a
:102b200004437800d5882000864a78000080fa00a7
:102b3000000006000200fa00d48820001442780049
:102b4000f440b30004437800d5882000864a78001a
:102b50000042eb00044f78000e0037009e427800e0
:102b60000582fb00840242000487200004824200a8
:102b70008002eb00050a78001e4378008682fb0085
:102b800074902000048242008042eb00054a7800e5
:102b90001e4fe8001e427800e34f5200efff360060
:102ba000d58820009542780004c8b30004c27200a2
:102bb00004437800d5882000864a78000080fa0017
:102bc000000006000200fa00a483200014427800ee
:102bd000e44f52004f003a00a44280004222de003f
:102be000a4428800a542800024428000848f5200c5
:102bf0000a00310025428000a44280000482520075
:102c0000e20f52000e00360084c0b3000443780087
:102c1000c5882000864a780009003700a542800058
:102c20002442800004825200e20f52000400360069
:102c30000042eb0004437800c5882000864a7800f3
:102c4000a442800024428800844280004222de00a8
:102c500004007800c6fd07000042780004437800b5
:102c600005912000864a7800944280004222de00ce
:102c700004007800befd070000427800044378009d
:102c800015912000864a7800b44280004222de007e
:102c900004007800b6fd0700004278000443780085
:102ca00025912000864a7800c44280004222de003e
:102cb00004007800aefd070000427800044378006d
:102cc00035912000864a78000042eb00044f7800de
:102cd000080037009e4278000582fb008402420013
:102ce00004852000048242008002eb00050a78007f
:102cf0001e4fe8001e427800e44f5200f5ff3600f8
:102d00000042eb0084427800a6832000054b780047
:102d100018fe07000080fa00000006000200fa001a
:102d2000881f78005ffc0700800c2000ccfc0700a7
:102d3000fcfc0700d4fc070088fc0700803e200054
:102d4000c7fc0700141680004522de0061426200c5
:102d500004437800c5842000864a78000042eb00d6
:102d6000044f78000042eb0014479800130037002e
:102d7000141680004522de006142620004437800a0
:102d8000c5842000864a7800c4842000144278005c
:102d9000e04f5200040032001e4fe8000042eb00fa
:102da00014479800050037000042eb00044f7800fc
:102db0001e4290000442e8001447980034c6b30055
:102dc0009e42780084cf520004003e009e42900054
:102dd00034c6b30084cf5200e5ff36009e42900017
:102de00044c6b30084cf520004003a0014c0b300bc
:102df00004437800f5882000864a7800f488200093
:102e000014427800e04f520012003a0014c0b300a0
:102e10000443780075912000864a78000042eb0058
:102e2000044f780004003700a00f20008cfc07003e
:102e300064ff07001e4fe8001e427800eb4f52006f
:102e4000f9ff36000042eb00044378007591200042
:102e5000864a780081e0a8000042eb00044f780029
:102e6000080037009e4278000582fb008402420081
:102e700004852000048242008002eb00050a7800ed
:102e80001e4fe8001e427800e44f5200f5ff360066
:102e90000042eb0084427800a6832000054b7800b6
:102ea00081e0a900a302070068020700ef01070004
:102eb000fcf707003d02070001003700000000009a
:102ec00028f80700f488200014427800e04f5200f0
:102ed00002003a003bff07009cfb0700b483200080
:102ee00014427800e44f52002a003a00f483200094
:102ef000144278000482fb008402e9000480200070
:102f00000482420014447800f483200014427800c4
:102f10000442e9008440780000802000a8fc0700fb
:102f200000427800844f540010003a0015802000c1
:102f300095427800348620001442780084cf5200f5
:102f40000a003a00248020001442780004407800ef
:102f50001603070000427800e04f520003003a00d9
:102f6000d4802000d4408800cefc07000042eb0053
:102f700084427800f6832000054b7800b48320005b
:102f8000144278000442e80084427800b6832000ae
:102f9000054b7800d483200014427800e24f5200a1
:102fa00007003a00d4832000144278000442e8006d
:102fb00084427800d6832000054b7800ca82a9009d
:102fc000c483200014427800e24f520077003a0098
:102fd000c4832000144278000442e8008442780050
:102fe000c6832000054b78000042eb008442780045
:102ff000f6852000054b78000042eb008442780003
:1030000006842000054b7800988220001844780040
:10301000d1c0b300c081200069fc070000427800e5
:10302000844f540061003a00c481200014427800ab
:10303000f04f52005d003a00648220001442780094
:103040000482fb0061026200e00f52001e003a00a1
:103050006582200095427800f489200014427800af
:1030600084cf520018003200f48920001442780006
:103070008482fb0064822000144278000482fb00fa
:1030800084826a00040c200004826200e00f520077
:103090000800320064822000144278008482fb0021
:1030a000040c200004826200e00f52000100320094
:1030b000fcf8070064822000144278008442780003
:1030c000f6892000054b78006482200014427800c5
:1030d0000482fb007802620043a2de000442780012
:1030e0008442780026892000054b7800248920003e
:1030f00014427800e24f520005003a0084c0b30049
:103100008442780026892000054b780008003700ab
:103110002489200014427800e34f520004003a0052
:1031200044c0b3008442780026892000054b780013
:10313000748220001442780084427800468920007e
:10314000054b780084822000144278008442780085
:1031500056892000054b78006482200014427800d4
:103160008482fb000402200004826200e00f52000f
:103170000700320034892000144278000424a000a3
:103180008442780036892000054b7800070037001c
:103190003589200095427800b4cfb30004c26200a4
:1031a0008442780036892000054b7800e4832000b3
:1031b00014427800e24f52000b003a00e4832000f2
:1031c000144278000442e80084427800e68320003c
:1031d000054b7800c282a90014c0b3008442780075
:1031e000f6852000054b780064902000144278009a
:1031f000f44f520012003a00048920001442780073
:10320000e04f52000e0032000042eb008442780092
:1032100006892000054b780044c0b3008442780042
:1032200046862000054b7800649020001442780008
:103230000442e8008442780066902000054b780044
:10324000f488200014427800e04f5200c8003a0091
:1032500035438000c4438000848f52000200310057
:10326000c202a8001f00370035438000c44380001d
:10327000848f52001a003a00344380000402e800b0
:10328000344388000042eb001447980010003700d8
:103290001e4290008482fb00748920000482420058
:1032a00014427800e04f520006003a001e4290009f
:1032b0008482fb00748920000482420015c0b300a0
:1032c000054a78001e4290000442e8001447980026
:1032d0001e429000e34f5200edff36000100370020
:1032e000c202a900d4882000144278008482fb0026
:1032f000040c200004826200e00f5200060032003d
:10330000e488200014427800e04f52000b003a009d
:10331000c222a80009003700e48820001442780087
:10332000e04f520005003a00c222a9000042eb0023
:1033300084427800a6842000054b78000042eb0010
:1033400014479800870037001e4290000482fb005b
:103350008402420004872000048242009402780024
:103360001e4290000482fb000403420024882000d7
:103370000402430014027800848f520024003a00b3
:103380001e4290000482fb000403420005872000d7
:1033900085024300950278008502e800040342009c
:1033a0000487200004024300050a78006489200095
:1033b000144278008482fb001e4290000482fb00cd
:1033c00004aade0061026200e00f520006003a002b
:1033d0001e4290008482fb00748920000482420017
:1033e0008042eb00054a78001e4290008482fb0078
:1033f00074902000048242008042eb00054a78006d
:1034000014c0b30084427800a6842000054b7800e5
:103410001e4290000482fb00840242008486200049
:1034200004824200940278001e4290000482fb0055
:1034300004034200a4872000040243001402780021
:10344000848f520044003a001e4290000482fb0028
:10345000040342008586200085024300950278001f
:103460008502e80004034200848620000402430031
:10347000050a780054c0b30084427800a684200076
:10348000054b78001e4290008482fb00749020005f
:103490000482420014427800e14f52002e003a00ac
:1034a0000002eb00344388001e4290008482fb003f
:1034b000749020000482420025c0b300054a7800c1
:1034c000e488200014427800844278001e42900074
:1034d0000482fb00160020000432dd000442780064
:1034e00004c2720084427800e6882000054b780010
:1034f0001e4290008482fb00b490200004824200af
:1035000015c0b300054a78001e4290008482fb007b
:10351000748920000482420014427800e14f520076
:1035200007003a001e4290008482fb00748920004c
:10353000048242008042eb00054a78000600370012
:103540001e4290008482fb007489200004824200a5
:1035500015c0b300054a78001e4290000442e800fe
:10356000144798001e429000e34f520076ff360049
:10357000a484200014427800e14f520002003a0077
:10358000cb02a80005003700a48420001442780074
:10359000e54f520001003200cb02a900b4842000a4
:1035a00014427800e14f520002003a00cb22a800fa
:1035b00043fe3700b484200014427800e54f5200e7
:1035c0003efe3200cb22a9003dfe37000200fa0089
:1035d000c44380008400780020072000e800070032
:1035e0000042eb00044f78001b0037009e42780039
:1035f0000582fb0084024200a4872000048242006e
:10360000940278001e4378000682fb000402420008
:103610004407b0008500780004007800d800070057
:103620009e4278000582fb0084024200248820002c
:1036300004824200940278001e4378000682fb0058
:1036400004024200c407b00085007800040078003e
:10365000cb0007001e4fe8001e427800e34f5200e7
:10366000e2ff36000080fa00000006000200fa00c7
:10367000881f780020072000000107000002780062
:10368000c4438800c44380000402e8003443880037
:103690000042eb00044f7800350037001e427800ee
:1036a0000484fb009e4278000582fb000402420075
:1036b0004407b00004007800f00007000002780022
:1036c00008034400a587200085024300840a78008f
:1036d0001e4378000684fb009e4278000582fb00b2
:1036e00004024200c407b00004007800e3000700b1
:1036f000000278000803440025882000850243006a
:10370000840a78001e4378000682fb001e4378007e
:103710008682fb0005834200a587200085024300c6
:10372000950278008502e8000403420084862000a8
:1037300004024300050a78009e4278000582fb00df
:103740001e4378008682fb00058342002588200006
:1037500085024300950278008502e80004034200d8
:103760000487200004024300050a78001e4fe80089
:103770001e427800e34f5200c8ff36004f04780025
:103780000080fa00000006000000fa0064892000b2
:10379000144278000482fb0084007800a008200016
:1037a000770007000080fa00000006000200fa001f
:1037b0000042eb0014479800a0082000af0007006b
:1037c00000027800044278000443780065892000f4
:1037d000864a78000042eb00044f78000e00370064
:1037e00064892000144278008482fb001e43780024
:1037f0000682fb0004aade00610262000442780037
:10380000e04f5200030032001e4290000442e800e4
:10381000144798001e4fe8001e427800e34f520004
:10382000efff36001e429000e14f520005003600c7
:1038300084c0b3000443780065892000864a78007c
:10384000d1ff07000080fa00000006000000fa0027
:103850004008200089000700000278000442780038
:1038600004437800d5882000864a7800600820004c
:1038700082000700000278000442780004437800c8
:10388000a5882000864a7800800820007b00070079
:10389000000278000442780004437800b5882000d4
:1038a000864a78000080fa00000006000000fa0056
:1038b000d4882000144278000482fb008400780041
:1038c000400820002e000700a48820001442780041
:1038d0000482fb00840078006008200028000700b4
:1038e000b4882000144278000482fb008400780031
:1038f00080082000220007000080fa000000060077
:103900000000fa0014c0b30004437800358620009c
:10391000864a780034862000144278000482fb0036
:103920008400780000072000150007000080fa00de
:10393000000006000000fa00000720004f0007000a
:1039400000027800044278000443780035862000a5
:10395000864a78003486200014427800e04f5200f6
:10396000040032003486200014427800e84f5200f0
:1039700001003600e2ff07000080fa0000000600a8
:103980000400fa00000f780011079800440024009a
:10399000043b8800f4c7b3000443780025032000eb
:1039a000864a780005e02f001e8242009e029000a9
:1039b000050abb000500fc0054052000343b8800cc
:1039c000a40a2000343b880061e7a8000000000042
:1039d0000000000000000000053b800004002800fb
:1039e00004826200e00f5200fbff3a000080fa0000
:1039f000000006000800fa00100798002107980050
:103a000062479800180037002e0290001442780098
:103a10000482fb00040f78002e0290000402e800ec
:103a2000240798002e029000144278000482fb00c4
:103a30004822dd001e0f42002e0290000402e80022
:103a4000240798009e0078001e009000ccff07001d
:103a50001e0290000482e800140798006e42900055
:103a600004c2e900644798006e429000e04f5200a3
:103a7000e5ff3a000080fa00000006000400fa00aa
:103a800010079800f4c7b300044378002503200012
:103a9000864a78001e0290000420b100140fba007c
:103aa000000000001e027800040078000080fa0088
:103ab000000006000800fa0010079800210798008f
:103ac00062479800190037001e009000ebff0700c6
:103ad00000027800040f78001e027800844278000b
:103ae0002e029000054a78002e0290000402e800a1
:103af000240798001e0278004822de0084427800e5
:103b00002e029000054a78002e0290000402e80080
:103b1000240798001e0290000482e8001407980011
:103b20006e42900004c2e900644798006e42900023
:103b3000e04f5200e4ff3a000080fa000000060067
:103b40000000fa000500fc0050052000303b880012
:103b5000a10a2000313b88000080fa000000060026
:103b60000000fa0004052400043b88000500fc0066
:103b700054052000343b8800a40a2000343b880010
:103b800061e7a80000000000000000000000000045
:103b9000053b80000400280004826200e00f520010
:103ba000fbff3a000080fa00000006000200fa0065
:103bb000004f78000042eb0004437800b5842000f9
:103bc000864a7800cb22a900a4c0b3000443780041
:103bd000d5802000864a7800348620001442780080
:103be00004437800e5802000864a78009e427800f1
:103bf0000582fb00f10f520009003200050e200083
:103c0000850f520003003200e10f52002e003200f7
:103c100050003700530007000042eb004e00370011
:103c2000d488200014427800f443b2008442780023
:103c3000d6882000054b7800d58820009542780072
:103c400004c8b30004c2720084427800d688200001
:103c5000054b7800348020001442780084427800bc
:103c6000a6882000054b78001e427800f6802000d0
:103c7000044b7800a48820001442780004437800a4
:103c800005812000864a7800f480200014427800e4
:103c90000443780015812000864a780004812000c2
:103ca000144278000443780025812000864a780079
:103cb000a4c0b3000443780055902000864a7800e1
:103cc0000042eb0024003700d48820001442780022
:103cd000f443b20004437800d5882000864a780077
:103ce000348020001442780004437800a588200026
:103cf000864a78009e427800f4802000054a7800c9
:103d0000a4882000144278008442780006812000b4
:103d1000054b7800f480200014427800844278003b
:103d200016812000054b78000481200014427800a1
:103d30008442780026812000054b7800a4c0b3009f
:103d40008442780056902000054b78000042eb003a
:103d50000100370014c0b300044078000080fa006e
:103d6000000006000000fa00c5902000954278008f
:103d700044002000842add00b49020001442780022
:103d800004c242000443780005812000864a78007e
:103d9000e59020009542780044002000842add0050
:103da000d49020001442780004c2420004437800fa
:103db00015812000864a780024892000144278006a
:103dc0000443780025812000864a78000042eb00f9
:103dd0000443780035812000864a78000042eb00d9
:103de00004437800f5802000864a7800d4882000bb
:103df000144278008482fb000404200004826200e4
:103e0000e00f520008003200f58020009542780053
:103e100004c4b30004c2720004437800f58020009b
:103e2000864a78000b003700d488200014427800be
:103e3000e04f520007003d00f580200095427800d9
:103e400004c8b30004c2720004437800f580200067
:103e5000864a7800a4882000144278000443780041
:103e600045812000864a7800348920001442780079
:103e70000443780055812000864a7800d4882000c9
:103e8000144278008482fb00040220000482620055
:103e9000e00f520007003200558120009542780063
:103ea00004c8b30004c272000443780055812000a6
:103eb000864a7800141680004622de0061426200c5
:103ec00084427800541680004f22de0004427800bd
:103ed0000482fb00040242000442780084c27200a3
:103ee00014892000144278000482fb004222dd0085
:103ef0000442780004c27200044378006581200007
:103f0000864a7800448920001442780004437800ef
:103f100075812000864a7800548920001442780078
:103f20000443780085812000864a7800d4c0b3001d
:103f30000443780055902000864a78000080fa00fb
:043f40000000060077
:020000040000fa
:103f4400000800001801000000000000000000004c
:020000040000fa
:0200000400fffb
:10fc000001010000010100000000000000000000f0
:04fc1000000f0000e1
:020000040000fa
:0200000400fffb
:10fc140002020000020200000000000000000000d8
:04fc2400000f0000cd
:020000040000fa
:0200000400fffb
:10fc280003030000030300000506000007080000a6
:04fc3800000f0000b9
:020000040000fa
:0200000400fffb
:10fc3c0004040000040400000000000000000000a8
:04fc4c00000f0000a5
:020000040000fa
:0200000400fffb
:10fc50000505000005050000000000000000000090
:04fc6000000f000091
:020000040000fa
:0200000400fffb
:10fc64000606000006060000000000000000000078
:04fc7400000f00007d
:020000040000fa
:0200000400fffb
:10fc78000707000007070000000000000000000060
:04fc8800000f000069
:020000040000fa
:0200000400fffb
:10fc8c000808000008080000000000000000000048
:04fc9c00000f000055
:020000040000fa
:0200000400fffb
:10fca0000909000009090000000000000000000030
:04fcb000000f000041
:020000040000fa
:0200000400fffb
:10fcb4000a0a00000a0a0000000000000000000018
:04fcc400000f00002d
:020000040000fa
:0200000400fffb
:10fcc80070760000312e0000303400002e31000024
:04fcd80035000000f3
:020000040000fa
:0200000400fffb
:04fcdc00ddaa00009d
:020000040000fa
:0200000400fffb
:04fce0001000000010
:020000040000fa
:0200000400fffb
:04fce4000a00000012
:020000040000fa
:0200000400fffb
:10fce8000500000000000000000000000000000007
:020000040000fa
:0200000400fffb
:10fcf80005000000000000000000000000000000f7
:020000040000fa
:0200000400fffb
:04fd080000000000f7
:020000040000fa
:0200000400fffb
:04fd0c0001000000f2
:020000040000fa
:0200000400fffb
:04fd100000000000ef
:020000040000fa
:0200000400fffb
:04fd140008000000e3
:020000040000fa
:0200000401f009
:04000000ffff0000fe
:020000040000fa
:0200000401f009
:04000800ffff0000f6
:020000040000fa
:0200000401f009
:04000c00810000006f
:020000040000fa
:0200000401f009
:0400100013000000d9
:020000040000fa
:0200000401f009
:040014005f00000089
:020000040000fa
:0200000401f009
:0400180018000000cc
:020000040000fa
:0200000401f009
:04001c00c30000001d
:020000040000fa
:0200000401f009
:040020001f000000bd
:00000001FF
